{
  "_format": "hh-sol-artifact-1",
  "contractName": "Upload",
  "sourceName": "contracts/Upload.sol",
  "abi": [
    {
      "inputs": [],
      "stateMutability": "nonpayable",
      "type": "constructor"
    },
    {
      "inputs": [
        {
          "internalType": "string",
          "name": "_url",
          "type": "string"
        },
        {
          "internalType": "string",
          "name": "_solution",
          "type": "string"
        }
      ],
      "name": "AI_solution",
      "outputs": [],
      "stateMutability": "nonpayable",
      "type": "function"
    },
    {
      "inputs": [
        {
          "internalType": "address",
          "name": "",
          "type": "address"
        },
        {
          "internalType": "uint256",
          "name": "",
          "type": "uint256"
        }
      ],
      "name": "PendingImg",
      "outputs": [
        {
          "internalType": "string",
          "name": "",
          "type": "string"
        }
      ],
      "stateMutability": "view",
      "type": "function"
    },
    {
      "inputs": [
        {
          "internalType": "string",
          "name": "",
          "type": "string"
        }
      ],
      "name": "PendingList",
      "outputs": [
        {
          "internalType": "address",
          "name": "owner",
          "type": "address"
        },
        {
          "internalType": "string",
          "name": "imageUrl",
          "type": "string"
        },
        {
          "internalType": "string",
          "name": "AI_sol",
          "type": "string"
        },
        {
          "internalType": "address",
          "name": "reviewer",
          "type": "address"
        },
        {
          "internalType": "string",
          "name": "reviewer_sol",
          "type": "string"
        },
        {
          "internalType": "bool",
          "name": "got_AI",
          "type": "bool"
        },
        {
          "internalType": "bool",
          "name": "reviwed",
          "type": "bool"
        },
        {
          "internalType": "bool",
          "name": "verified",
          "type": "bool"
        },
        {
          "internalType": "uint256",
          "name": "verificationCount",
          "type": "uint256"
        },
        {
          "internalType": "uint256",
          "name": "true_count",
          "type": "uint256"
        },
        {
          "internalType": "uint256",
          "name": "false_count",
          "type": "uint256"
        }
      ],
      "stateMutability": "view",
      "type": "function"
    },
    {
      "inputs": [
        {
          "internalType": "address",
          "name": "_farmer",
          "type": "address"
        },
        {
          "internalType": "uint256",
          "name": "_adhar_id",
          "type": "uint256"
        }
      ],
      "name": "add_farmer",
      "outputs": [],
      "stateMutability": "nonpayable",
      "type": "function"
    },
    {
      "inputs": [
        {
          "internalType": "address",
          "name": "_scientist",
          "type": "address"
        },
        {
          "internalType": "uint256",
          "name": "_adhar_id",
          "type": "uint256"
        },
        {
          "internalType": "uint256",
          "name": "_scientist_id",
          "type": "uint256"
        }
      ],
      "name": "add_scientist",
      "outputs": [],
      "stateMutability": "nonpayable",
      "type": "function"
    },
    {
      "inputs": [
        {
          "internalType": "address",
          "name": "",
          "type": "address"
        },
        {
          "internalType": "uint256",
          "name": "",
          "type": "uint256"
        }
      ],
      "name": "closeImg",
      "outputs": [
        {
          "internalType": "string",
          "name": "",
          "type": "string"
        }
      ],
      "stateMutability": "view",
      "type": "function"
    },
    {
      "inputs": [
        {
          "internalType": "string",
          "name": "",
          "type": "string"
        }
      ],
      "name": "closeList",
      "outputs": [
        {
          "internalType": "address",
          "name": "owner",
          "type": "address"
        },
        {
          "internalType": "string",
          "name": "imageUrl",
          "type": "string"
        },
        {
          "internalType": "string",
          "name": "AI_sol",
          "type": "string"
        },
        {
          "internalType": "address",
          "name": "reviewer",
          "type": "address"
        },
        {
          "internalType": "string",
          "name": "reviewer_sol",
          "type": "string"
        },
        {
          "internalType": "bool",
          "name": "got_AI",
          "type": "bool"
        },
        {
          "internalType": "bool",
          "name": "reviwed",
          "type": "bool"
        },
        {
          "internalType": "bool",
          "name": "verified",
          "type": "bool"
        },
        {
          "internalType": "uint256",
          "name": "verificationCount",
          "type": "uint256"
        },
        {
          "internalType": "uint256",
          "name": "true_count",
          "type": "uint256"
        },
        {
          "internalType": "uint256",
          "name": "false_count",
          "type": "uint256"
        }
      ],
      "stateMutability": "view",
      "type": "function"
    },
    {
      "inputs": [
        {
          "internalType": "address",
          "name": "_user",
          "type": "address"
        }
      ],
      "name": "display_close",
      "outputs": [
        {
          "internalType": "string[]",
          "name": "",
          "type": "string[]"
        }
      ],
      "stateMutability": "view",
      "type": "function"
    },
    {
      "inputs": [
        {
          "internalType": "string",
          "name": "_url",
          "type": "string"
        }
      ],
      "name": "display_close_output",
      "outputs": [
        {
          "components": [
            {
              "internalType": "address",
              "name": "owner",
              "type": "address"
            },
            {
              "internalType": "string",
              "name": "imageUrl",
              "type": "string"
            },
            {
              "internalType": "string",
              "name": "AI_sol",
              "type": "string"
            },
            {
              "internalType": "address",
              "name": "reviewer",
              "type": "address"
            },
            {
              "internalType": "string",
              "name": "reviewer_sol",
              "type": "string"
            },
            {
              "internalType": "bool",
              "name": "got_AI",
              "type": "bool"
            },
            {
              "internalType": "bool",
              "name": "reviwed",
              "type": "bool"
            },
            {
              "internalType": "bool",
              "name": "verified",
              "type": "bool"
            },
            {
              "internalType": "address[]",
              "name": "verifiers",
              "type": "address[]"
            },
            {
              "internalType": "uint256",
              "name": "verificationCount",
              "type": "uint256"
            },
            {
              "internalType": "uint256",
              "name": "true_count",
              "type": "uint256"
            },
            {
              "internalType": "uint256",
              "name": "false_count",
              "type": "uint256"
            }
          ],
          "internalType": "struct Upload.Plant_Image",
          "name": "",
          "type": "tuple"
        }
      ],
      "stateMutability": "view",
      "type": "function"
    },
    {
      "inputs": [
        {
          "internalType": "address",
          "name": "_user",
          "type": "address"
        }
      ],
      "name": "display_final",
      "outputs": [
        {
          "internalType": "string[]",
          "name": "",
          "type": "string[]"
        }
      ],
      "stateMutability": "view",
      "type": "function"
    },
    {
      "inputs": [
        {
          "internalType": "string",
          "name": "_url",
          "type": "string"
        }
      ],
      "name": "display_final_output",
      "outputs": [
        {
          "components": [
            {
              "internalType": "address",
              "name": "owner",
              "type": "address"
            },
            {
              "internalType": "string",
              "name": "imageUrl",
              "type": "string"
            },
            {
              "internalType": "string",
              "name": "AI_sol",
              "type": "string"
            },
            {
              "internalType": "address",
              "name": "reviewer",
              "type": "address"
            },
            {
              "internalType": "string",
              "name": "reviewer_sol",
              "type": "string"
            },
            {
              "internalType": "bool",
              "name": "got_AI",
              "type": "bool"
            },
            {
              "internalType": "bool",
              "name": "reviwed",
              "type": "bool"
            },
            {
              "internalType": "bool",
              "name": "verified",
              "type": "bool"
            },
            {
              "internalType": "address[]",
              "name": "verifiers",
              "type": "address[]"
            },
            {
              "internalType": "uint256",
              "name": "verificationCount",
              "type": "uint256"
            },
            {
              "internalType": "uint256",
              "name": "true_count",
              "type": "uint256"
            },
            {
              "internalType": "uint256",
              "name": "false_count",
              "type": "uint256"
            }
          ],
          "internalType": "struct Upload.Plant_Image",
          "name": "",
          "type": "tuple"
        }
      ],
      "stateMutability": "view",
      "type": "function"
    },
    {
      "inputs": [
        {
          "internalType": "address",
          "name": "_user",
          "type": "address"
        }
      ],
      "name": "display_open",
      "outputs": [
        {
          "internalType": "string[]",
          "name": "",
          "type": "string[]"
        }
      ],
      "stateMutability": "view",
      "type": "function"
    },
    {
      "inputs": [
        {
          "internalType": "string",
          "name": "_url",
          "type": "string"
        }
      ],
      "name": "display_open_output",
      "outputs": [
        {
          "components": [
            {
              "internalType": "address",
              "name": "owner",
              "type": "address"
            },
            {
              "internalType": "string",
              "name": "imageUrl",
              "type": "string"
            },
            {
              "internalType": "string",
              "name": "AI_sol",
              "type": "string"
            },
            {
              "internalType": "address",
              "name": "reviewer",
              "type": "address"
            },
            {
              "internalType": "string",
              "name": "reviewer_sol",
              "type": "string"
            },
            {
              "internalType": "bool",
              "name": "got_AI",
              "type": "bool"
            },
            {
              "internalType": "bool",
              "name": "reviwed",
              "type": "bool"
            },
            {
              "internalType": "bool",
              "name": "verified",
              "type": "bool"
            },
            {
              "internalType": "address[]",
              "name": "verifiers",
              "type": "address[]"
            },
            {
              "internalType": "uint256",
              "name": "verificationCount",
              "type": "uint256"
            },
            {
              "internalType": "uint256",
              "name": "true_count",
              "type": "uint256"
            },
            {
              "internalType": "uint256",
              "name": "false_count",
              "type": "uint256"
            }
          ],
          "internalType": "struct Upload.Plant_Image",
          "name": "",
          "type": "tuple"
        }
      ],
      "stateMutability": "view",
      "type": "function"
    },
    {
      "inputs": [
        {
          "internalType": "address",
          "name": "_user",
          "type": "address"
        }
      ],
      "name": "display_pending",
      "outputs": [
        {
          "internalType": "string[]",
          "name": "",
          "type": "string[]"
        }
      ],
      "stateMutability": "view",
      "type": "function"
    },
    {
      "inputs": [
        {
          "internalType": "uint256",
          "name": "",
          "type": "uint256"
        }
      ],
      "name": "farmers",
      "outputs": [
        {
          "internalType": "address",
          "name": "",
          "type": "address"
        }
      ],
      "stateMutability": "view",
      "type": "function"
    },
    {
      "inputs": [
        {
          "internalType": "address",
          "name": "",
          "type": "address"
        },
        {
          "internalType": "uint256",
          "name": "",
          "type": "uint256"
        }
      ],
      "name": "finalImg",
      "outputs": [
        {
          "internalType": "string",
          "name": "",
          "type": "string"
        }
      ],
      "stateMutability": "view",
      "type": "function"
    },
    {
      "inputs": [
        {
          "internalType": "string",
          "name": "",
          "type": "string"
        }
      ],
      "name": "finalList",
      "outputs": [
        {
          "internalType": "address",
          "name": "owner",
          "type": "address"
        },
        {
          "internalType": "string",
          "name": "imageUrl",
          "type": "string"
        },
        {
          "internalType": "string",
          "name": "AI_sol",
          "type": "string"
        },
        {
          "internalType": "address",
          "name": "reviewer",
          "type": "address"
        },
        {
          "internalType": "string",
          "name": "reviewer_sol",
          "type": "string"
        },
        {
          "internalType": "bool",
          "name": "got_AI",
          "type": "bool"
        },
        {
          "internalType": "bool",
          "name": "reviwed",
          "type": "bool"
        },
        {
          "internalType": "bool",
          "name": "verified",
          "type": "bool"
        },
        {
          "internalType": "uint256",
          "name": "verificationCount",
          "type": "uint256"
        },
        {
          "internalType": "uint256",
          "name": "true_count",
          "type": "uint256"
        },
        {
          "internalType": "uint256",
          "name": "false_count",
          "type": "uint256"
        }
      ],
      "stateMutability": "view",
      "type": "function"
    },
    {
      "inputs": [
        {
          "internalType": "uint256",
          "name": "",
          "type": "uint256"
        }
      ],
      "name": "final_images",
      "outputs": [
        {
          "internalType": "string",
          "name": "",
          "type": "string"
        }
      ],
      "stateMutability": "view",
      "type": "function"
    },
    {
      "inputs": [
        {
          "internalType": "address",
          "name": "_farmer",
          "type": "address"
        }
      ],
      "name": "getFarmerLevel",
      "outputs": [
        {
          "internalType": "uint256",
          "name": "",
          "type": "uint256"
        }
      ],
      "stateMutability": "view",
      "type": "function"
    },
    {
      "inputs": [
        {
          "internalType": "address",
          "name": "_scientist",
          "type": "address"
        }
      ],
      "name": "getScientistLevel",
      "outputs": [
        {
          "internalType": "uint256",
          "name": "",
          "type": "uint256"
        }
      ],
      "stateMutability": "view",
      "type": "function"
    },
    {
      "inputs": [
        {
          "internalType": "string",
          "name": "_url",
          "type": "string"
        }
      ],
      "name": "get_ai_sol",
      "outputs": [
        {
          "internalType": "string",
          "name": "",
          "type": "string"
        }
      ],
      "stateMutability": "view",
      "type": "function"
    },
    {
      "inputs": [],
      "name": "get_farmers",
      "outputs": [
        {
          "internalType": "address[]",
          "name": "",
          "type": "address[]"
        }
      ],
      "stateMutability": "view",
      "type": "function"
    },
    {
      "inputs": [],
      "name": "get_final_images",
      "outputs": [
        {
          "internalType": "string[]",
          "name": "",
          "type": "string[]"
        }
      ],
      "stateMutability": "view",
      "type": "function"
    },
    {
      "inputs": [],
      "name": "get_images",
      "outputs": [
        {
          "internalType": "string[]",
          "name": "",
          "type": "string[]"
        }
      ],
      "stateMutability": "view",
      "type": "function"
    },
    {
      "inputs": [
        {
          "internalType": "string",
          "name": "_url",
          "type": "string"
        }
      ],
      "name": "get_reviewer_add",
      "outputs": [
        {
          "internalType": "address",
          "name": "",
          "type": "address"
        }
      ],
      "stateMutability": "view",
      "type": "function"
    },
    {
      "inputs": [
        {
          "internalType": "string",
          "name": "_url",
          "type": "string"
        }
      ],
      "name": "get_scientist_sol",
      "outputs": [
        {
          "internalType": "string",
          "name": "",
          "type": "string"
        }
      ],
      "stateMutability": "view",
      "type": "function"
    },
    {
      "inputs": [],
      "name": "get_scientits",
      "outputs": [
        {
          "internalType": "address[]",
          "name": "",
          "type": "address[]"
        }
      ],
      "stateMutability": "view",
      "type": "function"
    },
    {
      "inputs": [
        {
          "internalType": "uint256",
          "name": "",
          "type": "uint256"
        }
      ],
      "name": "images",
      "outputs": [
        {
          "internalType": "string",
          "name": "",
          "type": "string"
        }
      ],
      "stateMutability": "view",
      "type": "function"
    },
    {
      "inputs": [
        {
          "internalType": "address",
          "name": "",
          "type": "address"
        },
        {
          "internalType": "uint256",
          "name": "",
          "type": "uint256"
        }
      ],
      "name": "openImg",
      "outputs": [
        {
          "internalType": "string",
          "name": "",
          "type": "string"
        }
      ],
      "stateMutability": "view",
      "type": "function"
    },
    {
      "inputs": [
        {
          "internalType": "string",
          "name": "",
          "type": "string"
        }
      ],
      "name": "openList",
      "outputs": [
        {
          "internalType": "address",
          "name": "owner",
          "type": "address"
        },
        {
          "internalType": "string",
          "name": "imageUrl",
          "type": "string"
        },
        {
          "internalType": "string",
          "name": "AI_sol",
          "type": "string"
        },
        {
          "internalType": "address",
          "name": "reviewer",
          "type": "address"
        },
        {
          "internalType": "string",
          "name": "reviewer_sol",
          "type": "string"
        },
        {
          "internalType": "bool",
          "name": "got_AI",
          "type": "bool"
        },
        {
          "internalType": "bool",
          "name": "reviwed",
          "type": "bool"
        },
        {
          "internalType": "bool",
          "name": "verified",
          "type": "bool"
        },
        {
          "internalType": "uint256",
          "name": "verificationCount",
          "type": "uint256"
        },
        {
          "internalType": "uint256",
          "name": "true_count",
          "type": "uint256"
        },
        {
          "internalType": "uint256",
          "name": "false_count",
          "type": "uint256"
        }
      ],
      "stateMutability": "view",
      "type": "function"
    },
    {
      "inputs": [
        {
          "internalType": "address",
          "name": "_user",
          "type": "address"
        },
        {
          "internalType": "string",
          "name": "_url",
          "type": "string"
        },
        {
          "internalType": "string",
          "name": "_solution",
          "type": "string"
        }
      ],
      "name": "review_image",
      "outputs": [],
      "stateMutability": "nonpayable",
      "type": "function"
    },
    {
      "inputs": [
        {
          "internalType": "uint256",
          "name": "",
          "type": "uint256"
        }
      ],
      "name": "scientists",
      "outputs": [
        {
          "internalType": "address",
          "name": "",
          "type": "address"
        }
      ],
      "stateMutability": "view",
      "type": "function"
    },
    {
      "inputs": [
        {
          "internalType": "address",
          "name": "_user",
          "type": "address"
        },
        {
          "internalType": "string",
          "name": "_url",
          "type": "string"
        }
      ],
      "name": "upload_image",
      "outputs": [],
      "stateMutability": "nonpayable",
      "type": "function"
    },
    {
      "inputs": [
        {
          "internalType": "address",
          "name": "",
          "type": "address"
        }
      ],
      "name": "verifiers_map",
      "outputs": [
        {
          "internalType": "bool",
          "name": "",
          "type": "bool"
        }
      ],
      "stateMutability": "view",
      "type": "function"
    },
    {
      "inputs": [
        {
          "internalType": "address",
          "name": "_user",
          "type": "address"
        },
        {
          "internalType": "string",
          "name": "_url",
          "type": "string"
        }
      ],
      "name": "verify_image",
      "outputs": [],
      "stateMutability": "nonpayable",
      "type": "function"
    }
  ],
  "bytecode": "0x608060405234801561001057600080fd5b50336000806101000a81548173ffffffffffffffffffffffffffffffffffffffff021916908373ffffffffffffffffffffffffffffffffffffffff16021790555061577580620000616000396000f3fe608060405234801561001057600080fd5b50600436106102115760003560e01c806376477e2f11610125578063a98307c6116100ad578063d93068e11161007c578063d93068e114610732578063edb794b014610762578063eeeece501461077e578063f20a325a146107ae578063f67e4361146107de57610211565b8063a98307c61461069a578063b8af0f79146106b6578063cb6497b4146106d2578063d5b8c35c1461070257610211565b8063836b03cd116100f4578063836b03cd146105a057806384856482146105d05780638aa9e631146106005780638afdd6691461063057806392ee83451461066057610211565b806376477e2f146104ea57806376f1d5f8146105245780637aa4e76c146105405780637fed3f681461057057610211565b806339203b0f116101a857806355975e571161017757806355975e571461040257806358866ef0146104205780635c3073151461045057806367f74545146104805780636aa4b03c146104ba57610211565b806339203b0f146103685780633a1d9997146103865780634153ae43146103b6578063421d73cc146103d257610211565b80631fa675f0116101e45780631fa675f0146102ce578063201e5414146102fe5780632aa586561461031c578063314247e71461033857610211565b80630532e6df146102165780631236dfeb146102465780631a015350146102765780631b918318146102b0575b600080fd5b610230600480360381019061022b9190614558565b61080e565b60405161023d91906146d7565b60405180910390f35b610260600480360381019061025b919061472f565b610926565b60405161026d91906147b9565b60405180910390f35b610290600480360381019061028b9190614910565b6109df565b6040516102a79b9a99989796959493929190614992565b60405180910390f35b6102b8610c4e565b6040516102c59190614b10565b60405180910390f35b6102e860048036038101906102e3919061472f565b610cdc565b6040516102f591906147b9565b60405180910390f35b610306610d95565b60405161031391906146d7565b60405180910390f35b61033660048036038101906103319190614b32565b610e6e565b005b610352600480360381019061034d9190614910565b611277565b60405161035f9190614d50565b60405180910390f35b61037061160f565b60405161037d91906146d7565b60405180910390f35b6103a0600480360381019061039b919061472f565b6116e8565b6040516103ad91906147b9565b60405180910390f35b6103d060048036038101906103cb9190614d72565b6117a1565b005b6103ec60048036038101906103e79190614558565b6121ca565b6040516103f991906146d7565b60405180910390f35b61040a6122e2565b6040516104179190614b10565b60405180910390f35b61043a60048036038101906104359190614558565b612370565b6040516104479190614dce565b60405180910390f35b61046a60048036038101906104659190614558565b6123bc565b6040516104779190614de9565b60405180910390f35b61049a60048036038101906104959190614910565b6123dc565b6040516104b19b9a99989796959493929190614992565b60405180910390f35b6104d460048036038101906104cf9190614558565b61264b565b6040516104e191906146d7565b60405180910390f35b61050460048036038101906104ff9190614910565b612763565b60405161051b9b9a99989796959493929190614992565b60405180910390f35b61053e60048036038101906105399190614e04565b6129d2565b005b61055a6004803603810190610555919061472f565b612ccf565b60405161056791906147b9565b60405180910390f35b61058a60048036038101906105859190614558565b612d88565b6040516105979190614dce565b60405180910390f35b6105ba60048036038101906105b59190614910565b612dd4565b6040516105c79190614d50565b60405180910390f35b6105ea60048036038101906105e59190614e57565b61316c565b6040516105f791906147b9565b60405180910390f35b61061a60048036038101906106159190614e57565b613218565b6040516106279190614e84565b60405180910390f35b61064a60048036038101906106459190614e57565b613257565b6040516106579190614e84565b60405180910390f35b61067a60048036038101906106759190614910565b613296565b6040516106919b9a99989796959493929190614992565b60405180910390f35b6106b460048036038101906106af9190614d72565b613505565b005b6106d060048036038101906106cb919061472f565b613668565b005b6106ec60048036038101906106e79190614910565b61388f565b6040516106f991906147b9565b60405180910390f35b61071c60048036038101906107179190614e57565b613948565b60405161072991906147b9565b60405180910390f35b61074c60048036038101906107479190614910565b6139f4565b60405161075991906147b9565b60405180910390f35b61077c60048036038101906107779190614e9f565b613aad565b005b61079860048036038101906107939190614910565b613e83565b6040516107a59190614d50565b60405180910390f35b6107c860048036038101906107c39190614558565b61421b565b6040516107d591906146d7565b60405180910390f35b6107f860048036038101906107f39190614910565b614333565b6040516108059190614e84565b60405180910390f35b6060600e60008373ffffffffffffffffffffffffffffffffffffffff1673ffffffffffffffffffffffffffffffffffffffff168152602001908152602001600020805480602002602001604051908101604052809291908181526020016000905b8282101561091b57838290600052602060002001805461088e90614f59565b80601f01602080910402602001604051908101604052809291908181526020018280546108ba90614f59565b80156109075780601f106108dc57610100808354040283529160200191610907565b820191906000526020600020905b8154815290600101906020018083116108ea57829003601f168201915b50505050508152602001906001019061086f565b505050509050919050565b600f602052816000526040600020818154811061094257600080fd5b9060005260206000200160009150915050805461095e90614f59565b80601f016020809104026020016040519081016040528092919081815260200182805461098a90614f59565b80156109d75780601f106109ac576101008083540402835291602001916109d7565b820191906000526020600020905b8154815290600101906020018083116109ba57829003601f168201915b505050505081565b600c818051602081018201805184825260208301602085012081835280955050505050506000915090508060000160009054906101000a900473ffffffffffffffffffffffffffffffffffffffff1690806001018054610a3e90614f59565b80601f0160208091040260200160405190810160405280929190818152602001828054610a6a90614f59565b8015610ab75780601f10610a8c57610100808354040283529160200191610ab7565b820191906000526020600020905b815481529060010190602001808311610a9a57829003601f168201915b505050505090806002018054610acc90614f59565b80601f0160208091040260200160405190810160405280929190818152602001828054610af890614f59565b8015610b455780601f10610b1a57610100808354040283529160200191610b45565b820191906000526020600020905b815481529060010190602001808311610b2857829003601f168201915b5050505050908060030160009054906101000a900473ffffffffffffffffffffffffffffffffffffffff1690806004018054610b8090614f59565b80601f0160208091040260200160405190810160405280929190818152602001828054610bac90614f59565b8015610bf95780601f10610bce57610100808354040283529160200191610bf9565b820191906000526020600020905b815481529060010190602001808311610bdc57829003601f168201915b5050505050908060050160009054906101000a900460ff16908060050160019054906101000a900460ff16908060050160029054906101000a900460ff1690806007015490806008015490806009015490508b565b60606005805480602002602001604051908101604052809291908181526020018280548015610cd257602002820191906000526020600020905b8160009054906101000a900473ffffffffffffffffffffffffffffffffffffffff1673ffffffffffffffffffffffffffffffffffffffff1681526020019060010190808311610c88575b5050505050905090565b600e6020528160005260406000208181548110610cf857600080fd5b90600052602060002001600091509150508054610d1490614f59565b80601f0160208091040260200160405190810160405280929190818152602001828054610d4090614f59565b8015610d8d5780601f10610d6257610100808354040283529160200191610d8d565b820191906000526020600020905b815481529060010190602001808311610d7057829003601f168201915b505050505081565b60606007805480602002602001604051908101604052809291908181526020016000905b82821015610e65578382906000526020600020018054610dd890614f59565b80601f0160208091040260200160405190810160405280929190818152602001828054610e0490614f59565b8015610e515780601f10610e2657610100808354040283529160200191610e51565b820191906000526020600020905b815481529060010190602001808311610e3457829003601f168201915b505050505081526020019060010190610db9565b50505050905090565b6000600a83604051610e809190614fc6565b90815260200160405180910390209050600015158160050160009054906101000a900460ff161515036110fd5781816002019081610ebe9190615189565b5060018160050160006101000a81548160ff02191690831515021790555080600b84604051610eed9190614fc6565b90815260200160405180910390206000820160009054906101000a900473ffffffffffffffffffffffffffffffffffffffff168160000160006101000a81548173ffffffffffffffffffffffffffffffffffffffff021916908373ffffffffffffffffffffffffffffffffffffffff16021790555060018201816001019081610f769190615271565b5060028201816002019081610f8b9190615271565b506003820160009054906101000a900473ffffffffffffffffffffffffffffffffffffffff168160030160006101000a81548173ffffffffffffffffffffffffffffffffffffffff021916908373ffffffffffffffffffffffffffffffffffffffff160217905550600482018160040190816110079190615271565b506005820160009054906101000a900460ff168160050160006101000a81548160ff0219169083151502179055506005820160019054906101000a900460ff168160050160016101000a81548160ff0219169083151502179055506005820160029054906101000a900460ff168160050160026101000a81548160ff02191690831515021790555060068201816006019080546110a5929190614383565b506007820154816007015560088201548160080155600982015481600901559050506007839080600181540180825580915050600190039060005260206000200160009091909190915090816110fb9190615189565b505b600a8360405161110d9190614fc6565b9081526020016040518091039020600080820160006101000a81549073ffffffffffffffffffffffffffffffffffffffff021916905560018201600061115391906143d5565b60028201600061116391906143d5565b6003820160006101000a81549073ffffffffffffffffffffffffffffffffffffffff021916905560048201600061119a91906143d5565b6005820160006101000a81549060ff02191690556005820160016101000a81549060ff02191690556005820160026101000a81549060ff02191690556006820160006111e69190614415565b6007820160009055600882016000905560098201600090555050600f60003373ffffffffffffffffffffffffffffffffffffffff1673ffffffffffffffffffffffffffffffffffffffff168152602001908152602001600020839080600181540180825580915050600190039060005260206000200160009091909190915090816112719190615189565b50505050565b61127f614436565b600c8260405161128f9190614fc6565b9081526020016040518091039020604051806101800160405290816000820160009054906101000a900473ffffffffffffffffffffffffffffffffffffffff1673ffffffffffffffffffffffffffffffffffffffff1673ffffffffffffffffffffffffffffffffffffffff16815260200160018201805461130f90614f59565b80601f016020809104026020016040519081016040528092919081815260200182805461133b90614f59565b80156113885780601f1061135d57610100808354040283529160200191611388565b820191906000526020600020905b81548152906001019060200180831161136b57829003601f168201915b505050505081526020016002820180546113a190614f59565b80601f01602080910402602001604051908101604052809291908181526020018280546113cd90614f59565b801561141a5780601f106113ef5761010080835404028352916020019161141a565b820191906000526020600020905b8154815290600101906020018083116113fd57829003601f168201915b505050505081526020016003820160009054906101000a900473ffffffffffffffffffffffffffffffffffffffff1673ffffffffffffffffffffffffffffffffffffffff1673ffffffffffffffffffffffffffffffffffffffff16815260200160048201805461148990614f59565b80601f01602080910402602001604051908101604052809291908181526020018280546114b590614f59565b80156115025780601f106114d757610100808354040283529160200191611502565b820191906000526020600020905b8154815290600101906020018083116114e557829003601f168201915b505050505081526020016005820160009054906101000a900460ff161515151581526020016005820160019054906101000a900460ff161515151581526020016005820160029054906101000a900460ff16151515158152602001600682018054806020026020016040519081016040528092919081815260200182805480156115e157602002820191906000526020600020905b8160009054906101000a900473ffffffffffffffffffffffffffffffffffffffff1673ffffffffffffffffffffffffffffffffffffffff1681526020019060010190808311611597575b5050505050815260200160078201548152602001600882015481526020016009820154815250509050919050565b60606008805480602002602001604051908101604052809291908181526020016000905b828210156116df57838290600052602060002001805461165290614f59565b80601f016020809104026020016040519081016040528092919081815260200182805461167e90614f59565b80156116cb5780601f106116a0576101008083540402835291602001916116cb565b820191906000526020600020905b8154815290600101906020018083116116ae57829003601f168201915b505050505081526020019060010190611633565b50505050905090565b6011602052816000526040600020818154811061170457600080fd5b9060005260206000200160009150915050805461172090614f59565b80601f016020809104026020016040519081016040528092919081815260200182805461174c90614f59565b80156117995780601f1061176e57610100808354040283529160200191611799565b820191906000526020600020905b81548152906001019060200180831161177c57829003601f168201915b505050505081565b600960003373ffffffffffffffffffffffffffffffffffffffff1673ffffffffffffffffffffffffffffffffffffffff16815260200190815260200160002060009054906101000a900460ff1661182d576040517f08c379a0000000000000000000000000000000000000000000000000000000008152600401611824906153a5565b60405180910390fd5b6000600c8260405161183f9190614fc6565b908152602001604051809103902090503373ffffffffffffffffffffffffffffffffffffffff16600c836040516118769190614fc6565b908152602001604051809103902060030160009054906101000a900473ffffffffffffffffffffffffffffffffffffffff1673ffffffffffffffffffffffffffffffffffffffff16036118fe576040517f08c379a00000000000000000000000000000000000000000000000000000000081526004016118f590615411565b60405180910390fd5b600073ffffffffffffffffffffffffffffffffffffffff16600c836040516119269190614fc6565b908152602001604051809103902060000160009054906101000a900473ffffffffffffffffffffffffffffffffffffffff1673ffffffffffffffffffffffffffffffffffffffff16036119ae576040517f08c379a00000000000000000000000000000000000000000000000000000000081526004016119a59061547d565b60405180910390fd5b3373ffffffffffffffffffffffffffffffffffffffff16600c836040516119d59190614fc6565b908152602001604051809103902060000160009054906101000a900473ffffffffffffffffffffffffffffffffffffffff1673ffffffffffffffffffffffffffffffffffffffff1603611a5d576040517f08c379a0000000000000000000000000000000000000000000000000000000008152600401611a549061550f565b60405180910390fd5b6000805b8260060180549050811015611afb573373ffffffffffffffffffffffffffffffffffffffff16836006018281548110611a9d57611a9c61552f565b5b9060005260206000200160009054906101000a900473ffffffffffffffffffffffffffffffffffffffff1673ffffffffffffffffffffffffffffffffffffffff1603611ae857600191505b8080611af39061558d565b915050611a61565b506000151581151514611b43576040517f08c379a0000000000000000000000000000000000000000000000000000000008152600401611b3a90615647565b60405180910390fd5b81600601339080600181540180825580915050600190039060005260206000200160009091909190916101000a81548173ffffffffffffffffffffffffffffffffffffffff021916908373ffffffffffffffffffffffffffffffffffffffff16021790555060018260050160026101000a81548160ff0219169083151502179055506000601160008673ffffffffffffffffffffffffffffffffffffffff1673ffffffffffffffffffffffffffffffffffffffff168152602001908152602001600020805480602002602001604051908101604052809291908181526020016000905b82821015611cd2578382906000526020600020018054611c4590614f59565b80601f0160208091040260200160405190810160405280929190818152602001828054611c7190614f59565b8015611cbe5780601f10611c9357610100808354040283529160200191611cbe565b820191906000526020600020905b815481529060010190602001808311611ca157829003601f168201915b505050505081526020019060010190611c26565b5050505090506000805b8251811015611d6a5785604051602001611cf69190614fc6565b60405160208183030381529060405280519060200120838281518110611d1f57611d1e61552f565b5b6020026020010151604051602001611d379190614fc6565b6040516020818303038152906040528051906020012003611d5757600191505b8080611d629061558d565b915050611cdc565b5060001515811515036120d857600c85604051611d879190614fc6565b9081526020016040518091039020600080820160006101000a81549073ffffffffffffffffffffffffffffffffffffffff0219169055600182016000611dcd91906143d5565b600282016000611ddd91906143d5565b6003820160006101000a81549073ffffffffffffffffffffffffffffffffffffffff0219169055600482016000611e1491906143d5565b6005820160006101000a81549060ff02191690556005820160016101000a81549060ff02191690556005820160026101000a81549060ff0219169055600682016000611e609190614415565b600782016000905560088201600090556009820160009055505083600d86604051611e8b9190614fc6565b90815260200160405180910390206000820160009054906101000a900473ffffffffffffffffffffffffffffffffffffffff168160000160006101000a81548173ffffffffffffffffffffffffffffffffffffffff021916908373ffffffffffffffffffffffffffffffffffffffff16021790555060018201816001019081611f149190615271565b5060028201816002019081611f299190615271565b506003820160009054906101000a900473ffffffffffffffffffffffffffffffffffffffff168160030160006101000a81548173ffffffffffffffffffffffffffffffffffffffff021916908373ffffffffffffffffffffffffffffffffffffffff16021790555060048201816004019081611fa59190615271565b506005820160009054906101000a900460ff168160050160006101000a81548160ff0219169083151502179055506005820160019054906101000a900460ff168160050160016101000a81548160ff0219169083151502179055506005820160029054906101000a900460ff168160050160026101000a81548160ff0219169083151502179055506006820181600601908054612043929190614383565b50600782015481600701556008820154816008015560098201548160090155905050601160008773ffffffffffffffffffffffffffffffffffffffff1673ffffffffffffffffffffffffffffffffffffffff168152602001908152602001600020859080600181540180825580915050600190039060005260206000200160009091909190915090816120d69190615189565b505b600260003373ffffffffffffffffffffffffffffffffffffffff1673ffffffffffffffffffffffffffffffffffffffff1681526020019081526020016000206003018590806001815401808255809150506001900390600052602060002001600090919091909150908161214c9190615189565b50600160003373ffffffffffffffffffffffffffffffffffffffff1673ffffffffffffffffffffffffffffffffffffffff168152602001908152602001600020600301859080600181540180825580915050600190039060005260206000200160009091909190915090816121c19190615189565b50505050505050565b6060601160008373ffffffffffffffffffffffffffffffffffffffff1673ffffffffffffffffffffffffffffffffffffffff168152602001908152602001600020805480602002602001604051908101604052809291908181526020016000905b828210156122d757838290600052602060002001805461224a90614f59565b80601f016020809104026020016040519081016040528092919081815260200182805461227690614f59565b80156122c35780601f10612298576101008083540402835291602001916122c3565b820191906000526020600020905b8154815290600101906020018083116122a657829003601f168201915b50505050508152602001906001019061222b565b505050509050919050565b6060600680548060200260200160405190810160405280929190818152602001828054801561236657602002820191906000526020600020905b8160009054906101000a900473ffffffffffffffffffffffffffffffffffffffff1673ffffffffffffffffffffffffffffffffffffffff168152602001906001019080831161231c575b5050505050905090565b6000600260008373ffffffffffffffffffffffffffffffffffffffff1673ffffffffffffffffffffffffffffffffffffffff168152602001908152602001600020600001549050919050565b60096020528060005260406000206000915054906101000a900460ff1681565b600b818051602081018201805184825260208301602085012081835280955050505050506000915090508060000160009054906101000a900473ffffffffffffffffffffffffffffffffffffffff169080600101805461243b90614f59565b80601f016020809104026020016040519081016040528092919081815260200182805461246790614f59565b80156124b45780601f10612489576101008083540402835291602001916124b4565b820191906000526020600020905b81548152906001019060200180831161249757829003601f168201915b5050505050908060020180546124c990614f59565b80601f01602080910402602001604051908101604052809291908181526020018280546124f590614f59565b80156125425780601f1061251757610100808354040283529160200191612542565b820191906000526020600020905b81548152906001019060200180831161252557829003601f168201915b5050505050908060030160009054906101000a900473ffffffffffffffffffffffffffffffffffffffff169080600401805461257d90614f59565b80601f01602080910402602001604051908101604052809291908181526020018280546125a990614f59565b80156125f65780601f106125cb576101008083540402835291602001916125f6565b820191906000526020600020905b8154815290600101906020018083116125d957829003601f168201915b5050505050908060050160009054906101000a900460ff16908060050160019054906101000a900460ff16908060050160029054906101000a900460ff1690806007015490806008015490806009015490508b565b6060601060008373ffffffffffffffffffffffffffffffffffffffff1673ffffffffffffffffffffffffffffffffffffffff168152602001908152602001600020805480602002602001604051908101604052809291908181526020016000905b828210156127585783829060005260206000200180546126cb90614f59565b80601f01602080910402602001604051908101604052809291908181526020018280546126f790614f59565b80156127445780601f1061271957610100808354040283529160200191612744565b820191906000526020600020905b81548152906001019060200180831161272757829003601f168201915b5050505050815260200190600101906126ac565b505050509050919050565b600a818051602081018201805184825260208301602085012081835280955050505050506000915090508060000160009054906101000a900473ffffffffffffffffffffffffffffffffffffffff16908060010180546127c290614f59565b80601f01602080910402602001604051908101604052809291908181526020018280546127ee90614f59565b801561283b5780601f106128105761010080835404028352916020019161283b565b820191906000526020600020905b81548152906001019060200180831161281e57829003601f168201915b50505050509080600201805461285090614f59565b80601f016020809104026020016040519081016040528092919081815260200182805461287c90614f59565b80156128c95780601f1061289e576101008083540402835291602001916128c9565b820191906000526020600020905b8154815290600101906020018083116128ac57829003601f168201915b5050505050908060030160009054906101000a900473ffffffffffffffffffffffffffffffffffffffff169080600401805461290490614f59565b80601f016020809104026020016040519081016040528092919081815260200182805461293090614f59565b801561297d5780601f106129525761010080835404028352916020019161297d565b820191906000526020600020905b81548152906001019060200180831161296057829003601f168201915b5050505050908060050160009054906101000a900460ff16908060050160019054906101000a900460ff16908060050160029054906101000a900460ff1690806007015490806008015490806009015490508b565b60008054906101000a900473ffffffffffffffffffffffffffffffffffffffff1673ffffffffffffffffffffffffffffffffffffffff163373ffffffffffffffffffffffffffffffffffffffff1614612a60576040517f08c379a0000000000000000000000000000000000000000000000000000000008152600401612a57906156b3565b60405180910390fd5b82600160008573ffffffffffffffffffffffffffffffffffffffff1673ffffffffffffffffffffffffffffffffffffffff16815260200190815260200160002060040160006101000a81548173ffffffffffffffffffffffffffffffffffffffff021916908373ffffffffffffffffffffffffffffffffffffffff1602179055506002600160008573ffffffffffffffffffffffffffffffffffffffff1673ffffffffffffffffffffffffffffffffffffffff1681526020019081526020016000206000018190555081600160008573ffffffffffffffffffffffffffffffffffffffff1673ffffffffffffffffffffffffffffffffffffffff1681526020019081526020016000206001018190555080600160008573ffffffffffffffffffffffffffffffffffffffff1673ffffffffffffffffffffffffffffffffffffffff168152602001908152602001600020600201819055506001600960008573ffffffffffffffffffffffffffffffffffffffff1673ffffffffffffffffffffffffffffffffffffffff16815260200190815260200160002060006101000a81548160ff0219169083151502179055506001600360008573ffffffffffffffffffffffffffffffffffffffff1673ffffffffffffffffffffffffffffffffffffffff16815260200190815260200160002060006101000a81548160ff0219169083151502179055506006839080600181540180825580915050600190039060005260206000200160009091909190916101000a81548173ffffffffffffffffffffffffffffffffffffffff021916908373ffffffffffffffffffffffffffffffffffffffff160217905550505050565b60106020528160005260406000208181548110612ceb57600080fd5b90600052602060002001600091509150508054612d0790614f59565b80601f0160208091040260200160405190810160405280929190818152602001828054612d3390614f59565b8015612d805780601f10612d5557610100808354040283529160200191612d80565b820191906000526020600020905b815481529060010190602001808311612d6357829003601f168201915b505050505081565b6000600160008373ffffffffffffffffffffffffffffffffffffffff1673ffffffffffffffffffffffffffffffffffffffff168152602001908152602001600020600001549050919050565b612ddc614436565b600b82604051612dec9190614fc6565b9081526020016040518091039020604051806101800160405290816000820160009054906101000a900473ffffffffffffffffffffffffffffffffffffffff1673ffffffffffffffffffffffffffffffffffffffff1673ffffffffffffffffffffffffffffffffffffffff168152602001600182018054612e6c90614f59565b80601f0160208091040260200160405190810160405280929190818152602001828054612e9890614f59565b8015612ee55780601f10612eba57610100808354040283529160200191612ee5565b820191906000526020600020905b815481529060010190602001808311612ec857829003601f168201915b50505050508152602001600282018054612efe90614f59565b80601f0160208091040260200160405190810160405280929190818152602001828054612f2a90614f59565b8015612f775780601f10612f4c57610100808354040283529160200191612f77565b820191906000526020600020905b815481529060010190602001808311612f5a57829003601f168201915b505050505081526020016003820160009054906101000a900473ffffffffffffffffffffffffffffffffffffffff1673ffffffffffffffffffffffffffffffffffffffff1673ffffffffffffffffffffffffffffffffffffffff168152602001600482018054612fe690614f59565b80601f016020809104026020016040519081016040528092919081815260200182805461301290614f59565b801561305f5780601f106130345761010080835404028352916020019161305f565b820191906000526020600020905b81548152906001019060200180831161304257829003601f168201915b505050505081526020016005820160009054906101000a900460ff161515151581526020016005820160019054906101000a900460ff161515151581526020016005820160029054906101000a900460ff161515151581526020016006820180548060200260200160405190810160405280929190818152602001828054801561313e57602002820191906000526020600020905b8160009054906101000a900473ffffffffffffffffffffffffffffffffffffffff1673ffffffffffffffffffffffffffffffffffffffff16815260200190600101908083116130f4575b5050505050815260200160078201548152602001600882015481526020016009820154815250509050919050565b6007818154811061317c57600080fd5b90600052602060002001600091509050805461319790614f59565b80601f01602080910402602001604051908101604052809291908181526020018280546131c390614f59565b80156132105780601f106131e557610100808354040283529160200191613210565b820191906000526020600020905b8154815290600101906020018083116131f357829003601f168201915b505050505081565b6006818154811061322857600080fd5b906000526020600020016000915054906101000a900473ffffffffffffffffffffffffffffffffffffffff1681565b6005818154811061326757600080fd5b906000526020600020016000915054906101000a900473ffffffffffffffffffffffffffffffffffffffff1681565b600d818051602081018201805184825260208301602085012081835280955050505050506000915090508060000160009054906101000a900473ffffffffffffffffffffffffffffffffffffffff16908060010180546132f590614f59565b80601f016020809104026020016040519081016040528092919081815260200182805461332190614f59565b801561336e5780601f106133435761010080835404028352916020019161336e565b820191906000526020600020905b81548152906001019060200180831161335157829003601f168201915b50505050509080600201805461338390614f59565b80601f01602080910402602001604051908101604052809291908181526020018280546133af90614f59565b80156133fc5780601f106133d1576101008083540402835291602001916133fc565b820191906000526020600020905b8154815290600101906020018083116133df57829003601f168201915b5050505050908060030160009054906101000a900473ffffffffffffffffffffffffffffffffffffffff169080600401805461343790614f59565b80601f016020809104026020016040519081016040528092919081815260200182805461346390614f59565b80156134b05780601f10613485576101008083540402835291602001916134b0565b820191906000526020600020905b81548152906001019060200180831161349357829003601f168201915b5050505050908060050160009054906101000a900460ff16908060050160019054906101000a900460ff16908060050160029054906101000a900460ff1690806007015490806008015490806009015490508b565b6000600a826040516135179190614fc6565b90815260200160405180910390209050600e60008473ffffffffffffffffffffffffffffffffffffffff1673ffffffffffffffffffffffffffffffffffffffff168152602001908152602001600020829080600181540180825580915050600190039060005260206000200160009091909190915090816135989190615189565b50818160010190816135aa9190615189565b50338160000160006101000a81548173ffffffffffffffffffffffffffffffffffffffff021916908373ffffffffffffffffffffffffffffffffffffffff160217905550600260008473ffffffffffffffffffffffffffffffffffffffff1673ffffffffffffffffffffffffffffffffffffffff168152602001908152602001600020600201829080600181540180825580915050600190039060005260206000200160009091909190915090816136629190615189565b50505050565b81600260008473ffffffffffffffffffffffffffffffffffffffff1673ffffffffffffffffffffffffffffffffffffffff16815260200190815260200160002060040160006101000a81548173ffffffffffffffffffffffffffffffffffffffff021916908373ffffffffffffffffffffffffffffffffffffffff1602179055506000600260008473ffffffffffffffffffffffffffffffffffffffff1673ffffffffffffffffffffffffffffffffffffffff1681526020019081526020016000206000018190555080600260008473ffffffffffffffffffffffffffffffffffffffff1673ffffffffffffffffffffffffffffffffffffffff168152602001908152602001600020600101819055506001600960008473ffffffffffffffffffffffffffffffffffffffff1673ffffffffffffffffffffffffffffffffffffffff16815260200190815260200160002060006101000a81548160ff0219169083151502179055506001600460008473ffffffffffffffffffffffffffffffffffffffff1673ffffffffffffffffffffffffffffffffffffffff16815260200190815260200160002060006101000a81548160ff0219169083151502179055506005829080600181540180825580915050600190039060005260206000200160009091909190916101000a81548173ffffffffffffffffffffffffffffffffffffffff021916908373ffffffffffffffffffffffffffffffffffffffff1602179055505050565b60606000600d836040516138a39190614fc6565b908152602001604051809103902090508060040180546138c290614f59565b80601f01602080910402602001604051908101604052809291908181526020018280546138ee90614f59565b801561393b5780601f106139105761010080835404028352916020019161393b565b820191906000526020600020905b81548152906001019060200180831161391e57829003601f168201915b5050505050915050919050565b6008818154811061395857600080fd5b90600052602060002001600091509050805461397390614f59565b80601f016020809104026020016040519081016040528092919081815260200182805461399f90614f59565b80156139ec5780601f106139c1576101008083540402835291602001916139ec565b820191906000526020600020905b8154815290600101906020018083116139cf57829003601f168201915b505050505081565b60606000600d83604051613a089190614fc6565b90815260200160405180910390209050806002018054613a2790614f59565b80601f0160208091040260200160405190810160405280929190818152602001828054613a5390614f59565b8015613aa05780601f10613a7557610100808354040283529160200191613aa0565b820191906000526020600020905b815481529060010190602001808311613a8357829003601f168201915b5050505050915050919050565b600360003373ffffffffffffffffffffffffffffffffffffffff1673ffffffffffffffffffffffffffffffffffffffff16815260200190815260200160002060009054906101000a900460ff16613b39576040517f08c379a0000000000000000000000000000000000000000000000000000000008152600401613b309061571f565b60405180910390fd5b6000600b83604051613b4b9190614fc6565b90815260200160405180910390209050600015158160050160019054906101000a900460ff16151503613dd65781816004019081613b899190615189565b50338160030160006101000a81548173ffffffffffffffffffffffffffffffffffffffff021916908373ffffffffffffffffffffffffffffffffffffffff16021790555060018160050160016101000a81548160ff02191690831515021790555080600c84604051613bfb9190614fc6565b90815260200160405180910390206000820160009054906101000a900473ffffffffffffffffffffffffffffffffffffffff168160000160006101000a81548173ffffffffffffffffffffffffffffffffffffffff021916908373ffffffffffffffffffffffffffffffffffffffff16021790555060018201816001019081613c849190615271565b5060028201816002019081613c999190615271565b506003820160009054906101000a900473ffffffffffffffffffffffffffffffffffffffff168160030160006101000a81548173ffffffffffffffffffffffffffffffffffffffff021916908373ffffffffffffffffffffffffffffffffffffffff16021790555060048201816004019081613d159190615271565b506005820160009054906101000a900460ff168160050160006101000a81548160ff0219169083151502179055506005820160019054906101000a900460ff168160050160016101000a81548160ff0219169083151502179055506005820160029054906101000a900460ff168160050160026101000a81548160ff0219169083151502179055506006820181600601908054613db3929190614383565b506007820154816007015560088201548160080155600982015481600901559050505b601060008573ffffffffffffffffffffffffffffffffffffffff1673ffffffffffffffffffffffffffffffffffffffff16815260200190815260200160002083908060018154018082558091505060019003906000526020600020016000909190919091509081613e479190615189565b50600883908060018154018082558091505060019003906000526020600020016000909190919091509081613e7c9190615189565b5050505050565b613e8b614436565b600d82604051613e9b9190614fc6565b9081526020016040518091039020604051806101800160405290816000820160009054906101000a900473ffffffffffffffffffffffffffffffffffffffff1673ffffffffffffffffffffffffffffffffffffffff1673ffffffffffffffffffffffffffffffffffffffff168152602001600182018054613f1b90614f59565b80601f0160208091040260200160405190810160405280929190818152602001828054613f4790614f59565b8015613f945780601f10613f6957610100808354040283529160200191613f94565b820191906000526020600020905b815481529060010190602001808311613f7757829003601f168201915b50505050508152602001600282018054613fad90614f59565b80601f0160208091040260200160405190810160405280929190818152602001828054613fd990614f59565b80156140265780601f10613ffb57610100808354040283529160200191614026565b820191906000526020600020905b81548152906001019060200180831161400957829003601f168201915b505050505081526020016003820160009054906101000a900473ffffffffffffffffffffffffffffffffffffffff1673ffffffffffffffffffffffffffffffffffffffff1673ffffffffffffffffffffffffffffffffffffffff16815260200160048201805461409590614f59565b80601f01602080910402602001604051908101604052809291908181526020018280546140c190614f59565b801561410e5780601f106140e35761010080835404028352916020019161410e565b820191906000526020600020905b8154815290600101906020018083116140f157829003601f168201915b505050505081526020016005820160009054906101000a900460ff161515151581526020016005820160019054906101000a900460ff161515151581526020016005820160029054906101000a900460ff16151515158152602001600682018054806020026020016040519081016040528092919081815260200182805480156141ed57602002820191906000526020600020905b8160009054906101000a900473ffffffffffffffffffffffffffffffffffffffff1673ffffffffffffffffffffffffffffffffffffffff16815260200190600101908083116141a3575b5050505050815260200160078201548152602001600882015481526020016009820154815250509050919050565b6060600f60008373ffffffffffffffffffffffffffffffffffffffff1673ffffffffffffffffffffffffffffffffffffffff168152602001908152602001600020805480602002602001604051908101604052809291908181526020016000905b8282101561432857838290600052602060002001805461429b90614f59565b80601f01602080910402602001604051908101604052809291908181526020018280546142c790614f59565b80156143145780601f106142e957610100808354040283529160200191614314565b820191906000526020600020905b8154815290600101906020018083116142f757829003601f168201915b50505050508152602001906001019061427c565b505050509050919050565b600080600d836040516143469190614fc6565b908152602001604051809103902090508060030160009054906101000a900473ffffffffffffffffffffffffffffffffffffffff16915050919050565b8280548282559060005260206000209081019282156143c45760005260206000209182015b828111156143c35782548255916001019190600101906143a8565b5b5090506143d191906144c9565b5090565b5080546143e190614f59565b6000825580601f106143f35750614412565b601f01602090049060005260206000209081019061441191906144c9565b5b50565b508054600082559060005260206000209081019061443391906144c9565b50565b604051806101800160405280600073ffffffffffffffffffffffffffffffffffffffff1681526020016060815260200160608152602001600073ffffffffffffffffffffffffffffffffffffffff16815260200160608152602001600015158152602001600015158152602001600015158152602001606081526020016000815260200160008152602001600081525090565b5b808211156144e25760008160009055506001016144ca565b5090565b6000604051905090565b600080fd5b600080fd5b600073ffffffffffffffffffffffffffffffffffffffff82169050919050565b6000614525826144fa565b9050919050565b6145358161451a565b811461454057600080fd5b50565b6000813590506145528161452c565b92915050565b60006020828403121561456e5761456d6144f0565b5b600061457c84828501614543565b91505092915050565b600081519050919050565b600082825260208201905092915050565b6000819050602082019050919050565b600081519050919050565b600082825260208201905092915050565b60005b838110156145eb5780820151818401526020810190506145d0565b60008484015250505050565b6000601f19601f8301169050919050565b6000614613826145b1565b61461d81856145bc565b935061462d8185602086016145cd565b614636816145f7565b840191505092915050565b600061464d8383614608565b905092915050565b6000602082019050919050565b600061466d82614585565b6146778185614590565b935083602082028501614689856145a1565b8060005b858110156146c557848403895281516146a68582614641565b94506146b183614655565b925060208a0199505060018101905061468d565b50829750879550505050505092915050565b600060208201905081810360008301526146f18184614662565b905092915050565b6000819050919050565b61470c816146f9565b811461471757600080fd5b50565b60008135905061472981614703565b92915050565b60008060408385031215614746576147456144f0565b5b600061475485828601614543565b92505060206147658582860161471a565b9150509250929050565b600082825260208201905092915050565b600061478b826145b1565b614795818561476f565b93506147a58185602086016145cd565b6147ae816145f7565b840191505092915050565b600060208201905081810360008301526147d38184614780565b905092915050565b600080fd5b600080fd5b7f4e487b7100000000000000000000000000000000000000000000000000000000600052604160045260246000fd5b61481d826145f7565b810181811067ffffffffffffffff8211171561483c5761483b6147e5565b5b80604052505050565b600061484f6144e6565b905061485b8282614814565b919050565b600067ffffffffffffffff82111561487b5761487a6147e5565b5b614884826145f7565b9050602081019050919050565b82818337600083830152505050565b60006148b36148ae84614860565b614845565b9050828152602081018484840111156148cf576148ce6147e0565b5b6148da848285614891565b509392505050565b600082601f8301126148f7576148f66147db565b5b81356149078482602086016148a0565b91505092915050565b600060208284031215614926576149256144f0565b5b600082013567ffffffffffffffff811115614944576149436144f5565b5b614950848285016148e2565b91505092915050565b6149628161451a565b82525050565b60008115159050919050565b61497d81614968565b82525050565b61498c816146f9565b82525050565b6000610160820190506149a8600083018e614959565b81810360208301526149ba818d614780565b905081810360408301526149ce818c614780565b90506149dd606083018b614959565b81810360808301526149ef818a614780565b90506149fe60a0830189614974565b614a0b60c0830188614974565b614a1860e0830187614974565b614a26610100830186614983565b614a34610120830185614983565b614a42610140830184614983565b9c9b505050505050505050505050565b600081519050919050565b600082825260208201905092915050565b6000819050602082019050919050565b614a878161451a565b82525050565b6000614a998383614a7e565b60208301905092915050565b6000602082019050919050565b6000614abd82614a52565b614ac78185614a5d565b9350614ad283614a6e565b8060005b83811015614b03578151614aea8882614a8d565b9750614af583614aa5565b925050600181019050614ad6565b5085935050505092915050565b60006020820190508181036000830152614b2a8184614ab2565b905092915050565b60008060408385031215614b4957614b486144f0565b5b600083013567ffffffffffffffff811115614b6757614b666144f5565b5b614b73858286016148e2565b925050602083013567ffffffffffffffff811115614b9457614b936144f5565b5b614ba0858286016148e2565b9150509250929050565b614bb381614968565b82525050565b600082825260208201905092915050565b6000614bd582614a52565b614bdf8185614bb9565b9350614bea83614a6e565b8060005b83811015614c1b578151614c028882614a8d565b9750614c0d83614aa5565b925050600181019050614bee565b5085935050505092915050565b614c31816146f9565b82525050565b600061018083016000830151614c506000860182614a7e565b5060208301518482036020860152614c688282614608565b91505060408301518482036040860152614c828282614608565b9150506060830151614c976060860182614a7e565b5060808301518482036080860152614caf8282614608565b91505060a0830151614cc460a0860182614baa565b5060c0830151614cd760c0860182614baa565b5060e0830151614cea60e0860182614baa565b50610100830151848203610100860152614d048282614bca565b915050610120830151614d1b610120860182614c28565b50610140830151614d30610140860182614c28565b50610160830151614d45610160860182614c28565b508091505092915050565b60006020820190508181036000830152614d6a8184614c37565b905092915050565b60008060408385031215614d8957614d886144f0565b5b6000614d9785828601614543565b925050602083013567ffffffffffffffff811115614db857614db76144f5565b5b614dc4858286016148e2565b9150509250929050565b6000602082019050614de36000830184614983565b92915050565b6000602082019050614dfe6000830184614974565b92915050565b600080600060608486031215614e1d57614e1c6144f0565b5b6000614e2b86828701614543565b9350506020614e3c8682870161471a565b9250506040614e4d8682870161471a565b9150509250925092565b600060208284031215614e6d57614e6c6144f0565b5b6000614e7b8482850161471a565b91505092915050565b6000602082019050614e996000830184614959565b92915050565b600080600060608486031215614eb857614eb76144f0565b5b6000614ec686828701614543565b935050602084013567ffffffffffffffff811115614ee757614ee66144f5565b5b614ef3868287016148e2565b925050604084013567ffffffffffffffff811115614f1457614f136144f5565b5b614f20868287016148e2565b9150509250925092565b7f4e487b7100000000000000000000000000000000000000000000000000000000600052602260045260246000fd5b60006002820490506001821680614f7157607f821691505b602082108103614f8457614f83614f2a565b5b50919050565b600081905092915050565b6000614fa0826145b1565b614faa8185614f8a565b9350614fba8185602086016145cd565b80840191505092915050565b6000614fd28284614f95565b915081905092915050565b60008190508160005260206000209050919050565b60006020601f8301049050919050565b600082821b905092915050565b60006008830261503f7fffffffffffffffffffffffffffffffffffffffffffffffffffffffffffffffff82615002565b6150498683615002565b95508019841693508086168417925050509392505050565b6000819050919050565b600061508661508161507c846146f9565b615061565b6146f9565b9050919050565b6000819050919050565b6150a08361506b565b6150b46150ac8261508d565b84845461500f565b825550505050565b600090565b6150c96150bc565b6150d4818484615097565b505050565b5b818110156150f8576150ed6000826150c1565b6001810190506150da565b5050565b601f82111561513d5761510e81614fdd565b61511784614ff2565b81016020851015615126578190505b61513a61513285614ff2565b8301826150d9565b50505b505050565b600082821c905092915050565b600061516060001984600802615142565b1980831691505092915050565b6000615179838361514f565b9150826002028217905092915050565b615192826145b1565b67ffffffffffffffff8111156151ab576151aa6147e5565b5b6151b58254614f59565b6151c08282856150fc565b600060209050601f8311600181146151f357600084156151e1578287015190505b6151eb858261516d565b865550615253565b601f19841661520186614fdd565b60005b8281101561522957848901518255600182019150602085019450602081019050615204565b868310156152465784890151615242601f89168261514f565b8355505b6001600288020188555050505b505050505050565b60008154905061526a81614f59565b9050919050565b81810361527f575050615357565b6152888261525b565b67ffffffffffffffff8111156152a1576152a06147e5565b5b6152ab8254614f59565b6152b68282856150fc565b6000601f8311600181146152e557600084156152d3578287015490505b6152dd858261516d565b865550615350565b601f1984166152f387614fdd565b96506152fe86614fdd565b60005b8281101561532657848901548255600182019150600185019450602081019050615301565b86831015615343578489015461533f601f89168261514f565b8355505b6001600288020188555050505b5050505050505b565b7f796f7520617265206e6f74207665726966696572730000000000000000000000600082015250565b600061538f60158361476f565b915061539a82615359565b602082019050919050565b600060208201905081810360008301526153be81615382565b9050919050565b7f796f752063616e742076657269667920796f7572206f776e20636f6d6d656e74600082015250565b60006153fb60208361476f565b9150615406826153c5565b602082019050919050565b6000602082019050818103600083015261542a816153ee565b9050919050565b7f696d61676520646f6573206e6f74206578697374000000000000000000000000600082015250565b600061546760148361476f565b915061547282615431565b602082019050919050565b600060208201905081810360008301526154968161545a565b9050919050565b7f796f7520617265206e6f7420616c6c6f77656420746f2076657269667920796f60008201527f7572206f776e20696d6167650000000000000000000000000000000000000000602082015250565b60006154f9602c8361476f565b91506155048261549d565b604082019050919050565b60006020820190508181036000830152615528816154ec565b9050919050565b7f4e487b7100000000000000000000000000000000000000000000000000000000600052603260045260246000fd5b7f4e487b7100000000000000000000000000000000000000000000000000000000600052601160045260246000fd5b6000615598826146f9565b91507fffffffffffffffffffffffffffffffffffffffffffffffffffffffffffffffff82036155ca576155c961555e565b5b600182019050919050565b7f796f75206861766520616c72656164792076657269666965642074686973206960008201527f6d61676500000000000000000000000000000000000000000000000000000000602082015250565b600061563160248361476f565b915061563c826155d5565b604082019050919050565b6000602082019050818103600083015261566081615624565b9050919050565b7f796f7520617265206e6f7420746865206b766b206d656d626572000000000000600082015250565b600061569d601a8361476f565b91506156a882615667565b602082019050919050565b600060208201905081810360008301526156cc81615690565b9050919050565b7f796f7520617265206e6f7420736369656e7469737420746f2072657669657700600082015250565b6000615709601f8361476f565b9150615714826156d3565b602082019050919050565b60006020820190508181036000830152615738816156fc565b905091905056fea2646970667358221220b5713250a6211ca8549bed88b8532106aef802967f6dae734feacb116f9882f964736f6c63430008130033",
  "linkReferences": {},
  "deployedLinkReferences": {}
}